S01100004C43442046494E414C2E73726563B6
S11300000C942A000C9447000C9447000C9447006D
S11300100C9447000C9447000C9447000C94470040
S11300200C9447000C9447000C9447000C94470030
S11300300C9447000C9447000C9447000C94470020
S11300400C9447000C9447000C9447000C94470010
S11300500C94470011241FBECFE5D8E0DEBFCDBF0E
S113006010E0A0E6B0E0E4E9F1E002C005900D92F2
S1130070A237B107D9F720E0A2E7B0E001C01D9292
S1130080A237B207E1F70E94AE000C94C8000C94AA
S113009000008BBBA898A998AA9A0000AA988DEE94
S11300A092E00197F1F700C0000008958FEF84BB40
S11300B08ABB87E893E10197F1F700C0000088E369
S11300C00E9449008CE00E94490086E00E94490099
S11300D081E00E94490080E80E9449000895CF937E
S11300E0DF93D62F813069F480E80E944900DD2334
S11300F0B1F0C0E084E10E944900CF5FDC13FACF85
S11301000EC0823061F480EC0E944900DD2339F096
S1130110C0E084E10E944900CF5FDC13FACFDF9195
S1130120CF9108958BBBA89AA998AA9A0000AA987F
S113013089EF90E00197F1F700C000000895CF9394
S1130140DF93EC018881882331F021960E9492008C
S113015089918111FBCFDF91CF9108950E945600C0
S113016061E081E00E946F0080E690E00E949F00C1
S113017087E690E00E949F008CE690E00E949F003A
S11301808FEF84BB8ABB11BA80B380B380B3FCCF3A
S1070190F894FFCF0D
S1130194205945532020004E4F20200041425354FF
S10501A4200035
S9030000FC
