S01300007472616E736D69747465722E7372656354
S11300000C942A000C9434000C9434000C943400A6
S11300100C9434000C9434000C9434000C9434008C
S11300200C9434000C9434000C9434000C9434007C
S11300300C9434000C9434000C9434000C9434006C
S11300400C9434000C9434000C9434000C9434005C
S11300500C94340011241FBECFE5D8E0DEBFCDBF21
S11300600E9436000C9445000C94000017BA8FEFE0
S113007081BB12BA91E182E223E3B09992BBB199B8
S111008082BBB29BFACF22BBF8CFF894FFCF1D
S9030000FC
